{
  "contractName": "spu",
  "abi": [
    {
      "inputs": [],
      "stateMutability": "nonpayable",
      "type": "constructor"
    },
    {
      "inputs": [],
      "name": "a_counter",
      "outputs": [
        {
          "internalType": "uint256",
          "name": "",
          "type": "uint256"
        }
      ],
      "stateMutability": "view",
      "type": "function",
      "constant": true
    },
    {
      "inputs": [
        {
          "internalType": "uint256",
          "name": "",
          "type": "uint256"
        }
      ],
      "name": "all_employees",
      "outputs": [
        {
          "internalType": "address",
          "name": "",
          "type": "address"
        }
      ],
      "stateMutability": "view",
      "type": "function",
      "constant": true
    },
    {
      "inputs": [
        {
          "internalType": "uint256",
          "name": "",
          "type": "uint256"
        }
      ],
      "name": "all_profs",
      "outputs": [
        {
          "internalType": "address",
          "name": "",
          "type": "address"
        }
      ],
      "stateMutability": "view",
      "type": "function",
      "constant": true
    },
    {
      "inputs": [
        {
          "internalType": "uint256",
          "name": "",
          "type": "uint256"
        }
      ],
      "name": "all_profs_id",
      "outputs": [
        {
          "internalType": "uint256",
          "name": "",
          "type": "uint256"
        }
      ],
      "stateMutability": "view",
      "type": "function",
      "constant": true
    },
    {
      "inputs": [
        {
          "internalType": "uint256",
          "name": "",
          "type": "uint256"
        }
      ],
      "name": "all_students",
      "outputs": [
        {
          "internalType": "address",
          "name": "",
          "type": "address"
        }
      ],
      "stateMutability": "view",
      "type": "function",
      "constant": true
    },
    {
      "inputs": [
        {
          "internalType": "uint256",
          "name": "",
          "type": "uint256"
        }
      ],
      "name": "all_students_id",
      "outputs": [
        {
          "internalType": "uint256",
          "name": "",
          "type": "uint256"
        }
      ],
      "stateMutability": "view",
      "type": "function",
      "constant": true
    },
    {
      "inputs": [
        {
          "internalType": "uint256",
          "name": "",
          "type": "uint256"
        }
      ],
      "name": "authorized",
      "outputs": [
        {
          "internalType": "address",
          "name": "",
          "type": "address"
        }
      ],
      "stateMutability": "view",
      "type": "function",
      "constant": true
    },
    {
      "inputs": [],
      "name": "c_counter",
      "outputs": [
        {
          "internalType": "uint256",
          "name": "",
          "type": "uint256"
        }
      ],
      "stateMutability": "view",
      "type": "function",
      "constant": true
    },
    {
      "inputs": [],
      "name": "e_counter",
      "outputs": [
        {
          "internalType": "uint256",
          "name": "",
          "type": "uint256"
        }
      ],
      "stateMutability": "view",
      "type": "function",
      "constant": true
    },
    {
      "inputs": [
        {
          "internalType": "uint256",
          "name": "",
          "type": "uint256"
        }
      ],
      "name": "get_course",
      "outputs": [
        {
          "internalType": "uint256",
          "name": "id",
          "type": "uint256"
        },
        {
          "internalType": "string",
          "name": "name",
          "type": "string"
        },
        {
          "internalType": "string",
          "name": "weekly_hour",
          "type": "string"
        },
        {
          "internalType": "string",
          "name": "level",
          "type": "string"
        },
        {
          "internalType": "string",
          "name": "college",
          "type": "string"
        }
      ],
      "stateMutability": "view",
      "type": "function",
      "constant": true
    },
    {
      "inputs": [
        {
          "internalType": "uint256",
          "name": "",
          "type": "uint256"
        }
      ],
      "name": "get_emp",
      "outputs": [
        {
          "internalType": "address",
          "name": "",
          "type": "address"
        }
      ],
      "stateMutability": "view",
      "type": "function",
      "constant": true
    },
    {
      "inputs": [
        {
          "internalType": "uint256",
          "name": "",
          "type": "uint256"
        }
      ],
      "name": "get_prof",
      "outputs": [
        {
          "internalType": "uint256",
          "name": "id",
          "type": "uint256"
        },
        {
          "internalType": "string",
          "name": "firstName",
          "type": "string"
        },
        {
          "internalType": "string",
          "name": "lastName",
          "type": "string"
        },
        {
          "internalType": "string",
          "name": "fatherName",
          "type": "string"
        },
        {
          "internalType": "string",
          "name": "motherName",
          "type": "string"
        },
        {
          "internalType": "string",
          "name": "gender",
          "type": "string"
        },
        {
          "internalType": "string",
          "name": "email",
          "type": "string"
        },
        {
          "internalType": "string",
          "name": "collegeName",
          "type": "string"
        },
        {
          "internalType": "string",
          "name": "dateOfBirth",
          "type": "string"
        },
        {
          "internalType": "string",
          "name": "mobileNumber",
          "type": "string"
        },
        {
          "internalType": "string",
          "name": "specialization",
          "type": "string"
        },
        {
          "internalType": "address",
          "name": "prof_address",
          "type": "address"
        }
      ],
      "stateMutability": "view",
      "type": "function",
      "constant": true
    },
    {
      "inputs": [
        {
          "internalType": "uint256",
          "name": "",
          "type": "uint256"
        }
      ],
      "name": "get_student",
      "outputs": [
        {
          "internalType": "uint256",
          "name": "id",
          "type": "uint256"
        },
        {
          "internalType": "string",
          "name": "firstName",
          "type": "string"
        },
        {
          "internalType": "string",
          "name": "lastName",
          "type": "string"
        },
        {
          "internalType": "string",
          "name": "fatherName",
          "type": "string"
        },
        {
          "internalType": "string",
          "name": "motherName",
          "type": "string"
        },
        {
          "internalType": "string",
          "name": "gender",
          "type": "string"
        },
        {
          "internalType": "string",
          "name": "email",
          "type": "string"
        },
        {
          "internalType": "string",
          "name": "collegeName",
          "type": "string"
        },
        {
          "internalType": "string",
          "name": "dateOfBirth",
          "type": "string"
        },
        {
          "internalType": "string",
          "name": "mobileNumber",
          "type": "string"
        },
        {
          "internalType": "uint256",
          "name": "cumulative_averge",
          "type": "uint256"
        },
        {
          "internalType": "address",
          "name": "student_address",
          "type": "address"
        }
      ],
      "stateMutability": "view",
      "type": "function",
      "constant": true
    },
    {
      "inputs": [],
      "name": "p_counter",
      "outputs": [
        {
          "internalType": "uint256",
          "name": "",
          "type": "uint256"
        }
      ],
      "stateMutability": "view",
      "type": "function",
      "constant": true
    },
    {
      "inputs": [],
      "name": "s_counter",
      "outputs": [
        {
          "internalType": "uint256",
          "name": "",
          "type": "uint256"
        }
      ],
      "stateMutability": "view",
      "type": "function",
      "constant": true
    },
    {
      "inputs": [
        {
          "internalType": "uint256",
          "name": "",
          "type": "uint256"
        }
      ],
      "name": "spu_courses",
      "outputs": [
        {
          "internalType": "uint256",
          "name": "id",
          "type": "uint256"
        },
        {
          "internalType": "string",
          "name": "name",
          "type": "string"
        },
        {
          "internalType": "string",
          "name": "weekly_hour",
          "type": "string"
        },
        {
          "internalType": "string",
          "name": "level",
          "type": "string"
        },
        {
          "internalType": "string",
          "name": "college",
          "type": "string"
        }
      ],
      "stateMutability": "view",
      "type": "function",
      "constant": true
    },
    {
      "inputs": [
        {
          "internalType": "address",
          "name": "a",
          "type": "address"
        }
      ],
      "name": "checkRole",
      "outputs": [
        {
          "internalType": "uint256",
          "name": "",
          "type": "uint256"
        }
      ],
      "stateMutability": "view",
      "type": "function",
      "constant": true
    },
    {
      "inputs": [
        {
          "internalType": "address",
          "name": "y",
          "type": "address"
        }
      ],
      "name": "Chek_If_auhrized",
      "outputs": [
        {
          "internalType": "bool",
          "name": "b",
          "type": "bool"
        }
      ],
      "stateMutability": "view",
      "type": "function",
      "constant": true
    },
    {
      "inputs": [
        {
          "internalType": "address",
          "name": "y",
          "type": "address"
        }
      ],
      "name": "ChekIfEmp",
      "outputs": [
        {
          "internalType": "bool",
          "name": "b",
          "type": "bool"
        }
      ],
      "stateMutability": "view",
      "type": "function",
      "constant": true
    },
    {
      "inputs": [
        {
          "internalType": "address",
          "name": "x",
          "type": "address"
        }
      ],
      "name": "ChekIfstudentaddress",
      "outputs": [
        {
          "internalType": "bool",
          "name": "b",
          "type": "bool"
        }
      ],
      "stateMutability": "view",
      "type": "function",
      "constant": true
    },
    {
      "inputs": [
        {
          "internalType": "uint256",
          "name": "course_id",
          "type": "uint256"
        },
        {
          "internalType": "uint256",
          "name": "w_h",
          "type": "uint256"
        },
        {
          "internalType": "uint256",
          "name": "s_id",
          "type": "uint256"
        },
        {
          "internalType": "uint256",
          "name": "_mark",
          "type": "uint256"
        }
      ],
      "name": "add_mark_To_Student",
      "outputs": [],
      "stateMutability": "nonpayable",
      "type": "function"
    },
    {
      "inputs": [
        {
          "internalType": "uint256",
          "name": "_id",
          "type": "uint256"
        },
        {
          "internalType": "address",
          "name": "_address",
          "type": "address"
        }
      ],
      "name": "add_address_to_student",
      "outputs": [],
      "stateMutability": "nonpayable",
      "type": "function"
    },
    {
      "inputs": [
        {
          "internalType": "uint256",
          "name": "_id",
          "type": "uint256"
        },
        {
          "internalType": "address",
          "name": "_address",
          "type": "address"
        }
      ],
      "name": "add_address_to_prof",
      "outputs": [],
      "stateMutability": "nonpayable",
      "type": "function"
    },
    {
      "inputs": [
        {
          "internalType": "address",
          "name": "A",
          "type": "address"
        }
      ],
      "name": "add_authorized_ad",
      "outputs": [],
      "stateMutability": "nonpayable",
      "type": "function"
    },
    {
      "inputs": [
        {
          "internalType": "uint256",
          "name": "id",
          "type": "uint256"
        },
        {
          "internalType": "string",
          "name": "name",
          "type": "string"
        },
        {
          "internalType": "string",
          "name": "weekly_hour",
          "type": "string"
        },
        {
          "internalType": "string",
          "name": "level",
          "type": "string"
        },
        {
          "internalType": "string",
          "name": "college",
          "type": "string"
        }
      ],
      "name": "Add_corse",
      "outputs": [],
      "stateMutability": "nonpayable",
      "type": "function"
    },
    {
      "inputs": [
        {
          "internalType": "uint256",
          "name": "course_id",
          "type": "uint256"
        },
        {
          "internalType": "uint256",
          "name": "w_h",
          "type": "uint256"
        },
        {
          "internalType": "uint256",
          "name": "student_id",
          "type": "uint256"
        },
        {
          "internalType": "uint256",
          "name": "_mark",
          "type": "uint256"
        }
      ],
      "name": "add_course_marks",
      "outputs": [],
      "stateMutability": "nonpayable",
      "type": "function"
    },
    {
      "inputs": [
        {
          "internalType": "uint256",
          "name": "_id",
          "type": "uint256"
        },
        {
          "internalType": "string",
          "name": "_firstName",
          "type": "string"
        },
        {
          "internalType": "string",
          "name": "_lastName",
          "type": "string"
        },
        {
          "internalType": "string",
          "name": "_fatherName",
          "type": "string"
        },
        {
          "internalType": "string",
          "name": "_motherName",
          "type": "string"
        },
        {
          "internalType": "string",
          "name": "_gender",
          "type": "string"
        },
        {
          "internalType": "string",
          "name": "_email",
          "type": "string"
        },
        {
          "internalType": "string",
          "name": "_collegeName",
          "type": "string"
        },
        {
          "internalType": "string",
          "name": "_dateOfBirth",
          "type": "string"
        },
        {
          "internalType": "string",
          "name": "_mobileNumber",
          "type": "string"
        }
      ],
      "name": "register_student",
      "outputs": [],
      "stateMutability": "nonpayable",
      "type": "function"
    },
    {
      "inputs": [
        {
          "internalType": "uint256",
          "name": "_id",
          "type": "uint256"
        },
        {
          "internalType": "string",
          "name": "_firstName",
          "type": "string"
        },
        {
          "internalType": "string",
          "name": "_lastName",
          "type": "string"
        },
        {
          "internalType": "string",
          "name": "_fatherName",
          "type": "string"
        },
        {
          "internalType": "string",
          "name": "_motherName",
          "type": "string"
        },
        {
          "internalType": "string",
          "name": "_gender",
          "type": "string"
        },
        {
          "internalType": "string",
          "name": "_email",
          "type": "string"
        },
        {
          "internalType": "string",
          "name": "_collegeName",
          "type": "string"
        },
        {
          "internalType": "string",
          "name": "_dateOfBirth",
          "type": "string"
        },
        {
          "internalType": "string",
          "name": "_mobileNumber",
          "type": "string"
        },
        {
          "internalType": "string",
          "name": "_specialization",
          "type": "string"
        }
      ],
      "name": "register_prof",
      "outputs": [],
      "stateMutability": "nonpayable",
      "type": "function"
    },
    {
      "inputs": [
        {
          "internalType": "address",
          "name": "_x",
          "type": "address"
        }
      ],
      "name": "register_emp",
      "outputs": [],
      "stateMutability": "nonpayable",
      "type": "function"
    },
    {
      "inputs": [
        {
          "internalType": "uint256",
          "name": "_id",
          "type": "uint256"
        },
        {
          "internalType": "string",
          "name": "_warnning",
          "type": "string"
        }
      ],
      "name": "add_warnning",
      "outputs": [],
      "stateMutability": "nonpayable",
      "type": "function"
    },
    {
      "inputs": [
        {
          "internalType": "uint256",
          "name": "_id",
          "type": "uint256"
        }
      ],
      "name": "get_Course_marks",
      "outputs": [
        {
          "components": [
            {
              "internalType": "uint256",
              "name": "student_id",
              "type": "uint256"
            },
            {
              "internalType": "uint256",
              "name": "mark",
              "type": "uint256"
            }
          ],
          "internalType": "struct spu.course_grade[]",
          "name": "l",
          "type": "tuple[]"
        }
      ],
      "stateMutability": "view",
      "type": "function",
      "constant": true
    },
    {
      "inputs": [
        {
          "internalType": "uint256",
          "name": "_id",
          "type": "uint256"
        }
      ],
      "name": "get_warnnings",
      "outputs": [
        {
          "internalType": "string[]",
          "name": "b",
          "type": "string[]"
        }
      ],
      "stateMutability": "view",
      "type": "function",
      "constant": true
    },
    {
      "inputs": [
        {
          "internalType": "uint256",
          "name": "_id",
          "type": "uint256"
        }
      ],
      "name": "get_student_courses",
      "outputs": [
        {
          "components": [
            {
              "internalType": "uint256",
              "name": "couse_id",
              "type": "uint256"
            },
            {
              "internalType": "uint256",
              "name": "weekly_hours",
              "type": "uint256"
            },
            {
              "internalType": "uint256",
              "name": "mark",
              "type": "uint256"
            }
          ],
          "internalType": "struct spu.student_courses[]",
          "name": "b",
          "type": "tuple[]"
        }
      ],
      "stateMutability": "view",
      "type": "function",
      "constant": true
    },
    {
      "inputs": [
        {
          "internalType": "uint256",
          "name": "n",
          "type": "uint256"
        }
      ],
      "name": "Delet_emp",
      "outputs": [],
      "stateMutability": "nonpayable",
      "type": "function"
    },
    {
      "inputs": [
        {
          "internalType": "uint256",
          "name": "_id",
          "type": "uint256"
        }
      ],
      "name": "deleteStudent",
      "outputs": [],
      "stateMutability": "nonpayable",
      "type": "function"
    },
    {
      "inputs": [
        {
          "internalType": "uint256",
          "name": "_id",
          "type": "uint256"
        }
      ],
      "name": "deleteprof",
      "outputs": [],
      "stateMutability": "nonpayable",
      "type": "function"
    },
    {
      "inputs": [
        {
          "internalType": "uint256",
          "name": "_id",
          "type": "uint256"
        },
        {
          "internalType": "string",
          "name": "_firstName",
          "type": "string"
        },
        {
          "internalType": "string",
          "name": "_lastName",
          "type": "string"
        },
        {
          "internalType": "string",
          "name": "_fatherName",
          "type": "string"
        },
        {
          "internalType": "string",
          "name": "_motherName",
          "type": "string"
        },
        {
          "internalType": "string",
          "name": "_gender",
          "type": "string"
        },
        {
          "internalType": "string",
          "name": "_email",
          "type": "string"
        },
        {
          "internalType": "string",
          "name": "_collegeName",
          "type": "string"
        },
        {
          "internalType": "string",
          "name": "_dateOfBirth",
          "type": "string"
        },
        {
          "internalType": "string",
          "name": "_mobileNumber",
          "type": "string"
        }
      ],
      "name": "modifyStudent",
      "outputs": [],
      "stateMutability": "nonpayable",
      "type": "function"
    },
    {
      "inputs": [
        {
          "internalType": "uint256",
          "name": "_id",
          "type": "uint256"
        },
        {
          "internalType": "string",
          "name": "_firstName",
          "type": "string"
        },
        {
          "internalType": "string",
          "name": "_lastName",
          "type": "string"
        },
        {
          "internalType": "string",
          "name": "_fatherName",
          "type": "string"
        },
        {
          "internalType": "string",
          "name": "_motherName",
          "type": "string"
        },
        {
          "internalType": "string",
          "name": "_gender",
          "type": "string"
        },
        {
          "internalType": "string",
          "name": "_email",
          "type": "string"
        },
        {
          "internalType": "string",
          "name": "_collegeName",
          "type": "string"
        },
        {
          "internalType": "string",
          "name": "_dateOfBirth",
          "type": "string"
        },
        {
          "internalType": "string",
          "name": "_mobileNumber",
          "type": "string"
        },
        {
          "internalType": "string",
          "name": "_specialization",
          "type": "string"
        }
      ],
      "name": "modifyprof",
      "outputs": [],
      "stateMutability": "nonpayable",
      "type": "function"
    }
  ],
  "bytecode": "0x60806040526000600155600060025560006003556000600455600060055534801561002957600080fd5b50336000806101000a81548173ffffffffffffffffffffffffffffffffffffffff021916908373ffffffffffffffffffffffffffffffffffffffff1602179055506148be806100796000396000f3fe608060405234801561001057600080fd5b50600436106102325760003560e01c80638894117d11610130578063bbb31e76116100b8578063e34a2e771161007c578063e34a2e7714610725578063eb01580814610755578063ec4e31e414610773578063f1ddb1d8146107a3578063fa10e048146107bf57610232565b8063bbb31e761461065d578063c3aea0721461068d578063c464009d146106bd578063c90d987c146106d9578063ccdf36bb1461070957610232565b8063a8199eb0116100ff578063a8199eb0146105a9578063ad8f4ebe146105c5578063af4e1b7e146105e1578063b0e88ff314610611578063b645307d1461064157610232565b80638894117d1461050b5780638c88956f14610529578063a0d7823e14610545578063a589f27c1461057557610232565b806345fbb7b9116101be57806369e1770c1161018257806369e1770c146104695780637586ceb3146104875780637a9eb362146104b75780637dceb6fe146104d35780637e5ebed1146104ef57610232565b806345fbb7b91461039457806347e4c6c5146103b25780634eb488c5146103ed578063537243151461041d5780636783ff441461043957610232565b8063269b600811610205578063269b6008146102bd578063284b8ad4146102f157806337357b3a1461030d5780633a8fc4f314610348578063459e12b01461037857610232565b80630d48669a146102375780630fb8a560146102675780631033c9d914610283578063153a9f66146102a1575b600080fd5b610251600480360381019061024c9190613410565b6107ef565b60405161025e919061347e565b60405180910390f35b610281600480360381019061027c91906134c5565b61082e565b005b61028b61095a565b6040516102989190613501565b60405180910390f35b6102bb60048036038101906102b6919061351c565b610960565b005b6102d760048036038101906102d29190613410565b6109f3565b6040516102e8959493929190613613565b60405180910390f35b61030b600480360381019061030691906137b7565b610c59565b005b61032760048036038101906103229190613410565b610d9b565b60405161033f9c9b9a99989796959493929190613992565b60405180910390f35b610362600480360381019061035d9190613410565b6112e3565b60405161036f919061347e565b60405180910390f35b610392600480360381019061038d9190613a8b565b611322565b005b61039c6114a7565b6040516103a99190613501565b60405180910390f35b6103cc60048036038101906103c79190613410565b6114ad565b6040516103e49c9b9a99989796959493929190613b76565b60405180910390f35b610407600480360381019061040291906134c5565b611a7d565b6040516104149190613c91565b60405180910390f35b61043760048036038101906104329190613410565b611b2b565b005b610453600480360381019061044e91906134c5565b611d2b565b6040516104609190613c91565b60405180910390f35b610471611dd9565b60405161047e9190613501565b60405180910390f35b6104a1600480360381019061049c9190613410565b611ddf565b6040516104ae9190613dac565b60405180910390f35b6104d160048036038101906104cc9190613410565b611e77565b005b6104ed60048036038101906104e89190613dce565b611f63565b005b61050960048036038101906105049190613fda565b6120b8565b005b6105136121aa565b6040516105209190613501565b60405180910390f35b610543600480360381019061053e9190613dce565b6121b0565b005b61055f600480360381019061055a91906134c5565b61232d565b60405161056c9190613501565b60405180910390f35b61058f600480360381019061058a9190613410565b6123f2565b6040516105a0959493929190613613565b60405180910390f35b6105c360048036038101906105be9190613fda565b612648565b005b6105df60048036038101906105da91906137b7565b61273a565b005b6105fb60048036038101906105f69190613410565b6128a4565b60405161060891906140f8565b60405180910390f35b61062b60048036038101906106269190613410565b612932565b6040516106389190613501565b60405180910390f35b61065b60048036038101906106569190613410565b612956565b005b61067760048036038101906106729190613410565b612b6e565b604051610684919061347e565b60405180910390f35b6106a760048036038101906106a29190613410565b612bad565b6040516106b49190614226565b60405180910390f35b6106d760048036038101906106d29190614248565b612ca1565b005b6106f360048036038101906106ee9190613410565b612d09565b6040516107009190613501565b60405180910390f35b610723600480360381019061071e91906134c5565b612d2d565b005b61073f600480360381019061073a9190613410565b612dc6565b60405161074c919061347e565b60405180910390f35b61075d612df9565b60405161076a9190613501565b60405180910390f35b61078d60048036038101906107889190613410565b612dff565b60405161079a919061347e565b60405180910390f35b6107bd60048036038101906107b8919061351c565b612e3e565b005b6107d960048036038101906107d491906134c5565b612eed565b6040516107e69190613c91565b60405180910390f35b601081815481106107ff57600080fd5b906000526020600020016000915054906101000a900473ffffffffffffffffffffffffffffffffffffffff1681565b3360008054906101000a900473ffffffffffffffffffffffffffffffffffffffff1673ffffffffffffffffffffffffffffffffffffffff168173ffffffffffffffffffffffffffffffffffffffff161461088757600080fd5b8160066000600354815260200190815260200160002060006101000a81548173ffffffffffffffffffffffffffffffffffffffff021916908373ffffffffffffffffffffffffffffffffffffffff160217905550600a829080600181540180825580915050600190039060005260206000200160009091909190916101000a81548173ffffffffffffffffffffffffffffffffffffffff021916908373ffffffffffffffffffffffffffffffffffffffff16021790555060036000815480929190610951906142d3565b91905055505050565b60055481565b600060086000848152602001908152602001600020905061097f613203565b85816000018181525050828160400181815250508481602001818152505081600d018190806001815401808255809150506001900390600052602060002090600302016000909190919091506000820151816000015560208201518160010155604082015181600201555050505050505050565b600b8181548110610a0357600080fd5b9060005260206000209060060201600091509050806000015490806001018054610a2c9061434a565b80601f0160208091040260200160405190810160405280929190818152602001828054610a589061434a565b8015610aa55780601f10610a7a57610100808354040283529160200191610aa5565b820191906000526020600020905b815481529060010190602001808311610a8857829003601f168201915b505050505090806002018054610aba9061434a565b80601f0160208091040260200160405190810160405280929190818152602001828054610ae69061434a565b8015610b335780601f10610b0857610100808354040283529160200191610b33565b820191906000526020600020905b815481529060010190602001808311610b1657829003601f168201915b505050505090806003018054610b489061434a565b80601f0160208091040260200160405190810160405280929190818152602001828054610b749061434a565b8015610bc15780601f10610b9657610100808354040283529160200191610bc1565b820191906000526020600020905b815481529060010190602001808311610ba457829003601f168201915b505050505090806004018054610bd69061434a565b80601f0160208091040260200160405190810160405280929190818152602001828054610c029061434a565b8015610c4f5780601f10610c2457610100808354040283529160200191610c4f565b820191906000526020600020905b815481529060010190602001808311610c3257829003601f168201915b5050505050905085565b3360008054906101000a900473ffffffffffffffffffffffffffffffffffffffff1673ffffffffffffffffffffffffffffffffffffffff168173ffffffffffffffffffffffffffffffffffffffff1614610cb257600080fd5b8a600860008d81526020019081526020016000206000015414610cd457600080fd5b6000600860008d815260200190815260200160002090508a816001019081610cfc9190614527565b5089816002019081610d0e9190614527565b5088816003019081610d209190614527565b5087816004019081610d329190614527565b5086816005019081610d449190614527565b5085816006019081610d569190614527565b5084816007019081610d689190614527565b5083816008019081610d7a9190614527565b5082816009019081610d8c9190614527565b50505050505050505050505050565b6008602052806000526040600020600091509050806000015490806001018054610dc49061434a565b80601f0160208091040260200160405190810160405280929190818152602001828054610df09061434a565b8015610e3d5780601f10610e1257610100808354040283529160200191610e3d565b820191906000526020600020905b815481529060010190602001808311610e2057829003601f168201915b505050505090806002018054610e529061434a565b80601f0160208091040260200160405190810160405280929190818152602001828054610e7e9061434a565b8015610ecb5780601f10610ea057610100808354040283529160200191610ecb565b820191906000526020600020905b815481529060010190602001808311610eae57829003601f168201915b505050505090806003018054610ee09061434a565b80601f0160208091040260200160405190810160405280929190818152602001828054610f0c9061434a565b8015610f595780601f10610f2e57610100808354040283529160200191610f59565b820191906000526020600020905b815481529060010190602001808311610f3c57829003601f168201915b505050505090806004018054610f6e9061434a565b80601f0160208091040260200160405190810160405280929190818152602001828054610f9a9061434a565b8015610fe75780601f10610fbc57610100808354040283529160200191610fe7565b820191906000526020600020905b815481529060010190602001808311610fca57829003601f168201915b505050505090806005018054610ffc9061434a565b80601f01602080910402602001604051908101604052809291908181526020018280546110289061434a565b80156110755780601f1061104a57610100808354040283529160200191611075565b820191906000526020600020905b81548152906001019060200180831161105857829003601f168201915b50505050509080600601805461108a9061434a565b80601f01602080910402602001604051908101604052809291908181526020018280546110b69061434a565b80156111035780601f106110d857610100808354040283529160200191611103565b820191906000526020600020905b8154815290600101906020018083116110e657829003601f168201915b5050505050908060070180546111189061434a565b80601f01602080910402602001604051908101604052809291908181526020018280546111449061434a565b80156111915780601f1061116657610100808354040283529160200191611191565b820191906000526020600020905b81548152906001019060200180831161117457829003601f168201915b5050505050908060080180546111a69061434a565b80601f01602080910402602001604051908101604052809291908181526020018280546111d29061434a565b801561121f5780601f106111f45761010080835404028352916020019161121f565b820191906000526020600020905b81548152906001019060200180831161120257829003601f168201915b5050505050908060090180546112349061434a565b80601f01602080910402602001604051908101604052809291908181526020018280546112609061434a565b80156112ad5780601f10611282576101008083540402835291602001916112ad565b820191906000526020600020905b81548152906001019060200180831161129057829003601f168201915b50505050509080600a01549080600b0160009054906101000a900473ffffffffffffffffffffffffffffffffffffffff1690508c565b600e81815481106112f357600080fd5b906000526020600020016000915054906101000a900473ffffffffffffffffffffffffffffffffffffffff1681565b3360008054906101000a900473ffffffffffffffffffffffffffffffffffffffff1673ffffffffffffffffffffffffffffffffffffffff168173ffffffffffffffffffffffffffffffffffffffff161461137b57600080fd5b6000600960008881526020019081526020016000209050868160000181905550858160010190816113ac9190614527565b50848160020190816113be9190614527565b50838160030190816113d09190614527565b50828160040190816113e29190614527565b50600b819080600181540180825580915050600190039060005260206000209060060201600090919091909150600082015481600001556001820181600101908161142d919061460f565b5060028201816002019081611442919061460f565b5060038201816003019081611457919061460f565b506004820181600401908161146c919061460f565b506005820181600501908054611483929190613224565b50505060046000815480929190611499906142d3565b919050555050505050505050565b60025481565b60076020528060005260406000206000915090508060000154908060010180546114d69061434a565b80601f01602080910402602001604051908101604052809291908181526020018280546115029061434a565b801561154f5780601f106115245761010080835404028352916020019161154f565b820191906000526020600020905b81548152906001019060200180831161153257829003601f168201915b5050505050908060020180546115649061434a565b80601f01602080910402602001604051908101604052809291908181526020018280546115909061434a565b80156115dd5780601f106115b2576101008083540402835291602001916115dd565b820191906000526020600020905b8154815290600101906020018083116115c057829003601f168201915b5050505050908060030180546115f29061434a565b80601f016020809104026020016040519081016040528092919081815260200182805461161e9061434a565b801561166b5780601f106116405761010080835404028352916020019161166b565b820191906000526020600020905b81548152906001019060200180831161164e57829003601f168201915b5050505050908060040180546116809061434a565b80601f01602080910402602001604051908101604052809291908181526020018280546116ac9061434a565b80156116f95780601f106116ce576101008083540402835291602001916116f9565b820191906000526020600020905b8154815290600101906020018083116116dc57829003601f168201915b50505050509080600501805461170e9061434a565b80601f016020809104026020016040519081016040528092919081815260200182805461173a9061434a565b80156117875780601f1061175c57610100808354040283529160200191611787565b820191906000526020600020905b81548152906001019060200180831161176a57829003601f168201915b50505050509080600601805461179c9061434a565b80601f01602080910402602001604051908101604052809291908181526020018280546117c89061434a565b80156118155780601f106117ea57610100808354040283529160200191611815565b820191906000526020600020905b8154815290600101906020018083116117f857829003601f168201915b50505050509080600701805461182a9061434a565b80601f01602080910402602001604051908101604052809291908181526020018280546118569061434a565b80156118a35780601f10611878576101008083540402835291602001916118a3565b820191906000526020600020905b81548152906001019060200180831161188657829003601f168201915b5050505050908060080180546118b89061434a565b80601f01602080910402602001604051908101604052809291908181526020018280546118e49061434a565b80156119315780601f1061190657610100808354040283529160200191611931565b820191906000526020600020905b81548152906001019060200180831161191457829003601f168201915b5050505050908060090180546119469061434a565b80601f01602080910402602001604051908101604052809291908181526020018280546119729061434a565b80156119bf5780601f10611994576101008083540402835291602001916119bf565b820191906000526020600020905b8154815290600101906020018083116119a257829003601f168201915b50505050509080600a0180546119d49061434a565b80601f0160208091040260200160405190810160405280929190818152602001828054611a009061434a565b8015611a4d5780601f10611a2257610100808354040283529160200191611a4d565b820191906000526020600020905b815481529060010190602001808311611a3057829003601f168201915b50505050509080600b0160009054906101000a900473ffffffffffffffffffffffffffffffffffffffff1690508c565b600080600090505b600c80549050811015611b2057600c8181548110611aa657611aa56146f7565b5b9060005260206000200160009054906101000a900473ffffffffffffffffffffffffffffffffffffffff1673ffffffffffffffffffffffffffffffffffffffff168373ffffffffffffffffffffffffffffffffffffffff1603611b0d576001915050611b26565b8080611b18906142d3565b915050611a85565b50600090505b919050565b3360008054906101000a900473ffffffffffffffffffffffffffffffffffffffff1673ffffffffffffffffffffffffffffffffffffffff168173ffffffffffffffffffffffffffffffffffffffff1614611b8457600080fd5b60076000838152602001908152602001600020600080820160009055600182016000611bb09190613290565b600282016000611bc09190613290565b600382016000611bd09190613290565b600482016000611be09190613290565b600582016000611bf09190613290565b600682016000611c009190613290565b600782016000611c109190613290565b600882016000611c209190613290565b600982016000611c309190613290565b600a82016000611c409190613290565b600b820160006101000a81549073ffffffffffffffffffffffffffffffffffffffff0219169055505060006001600f80549050611c7d9190614726565b9050600f8181548110611c9357611c926146f7565b5b90600052602060002001548314611ce657600f8181548110611cb857611cb76146f7565b5b9060005260206000200154600f8481548110611cd757611cd66146f7565b5b90600052602060002001819055505b600f805480611cf857611cf761475a565b5b6001900381819060005260206000200160009055905560026000815480929190611d2190614789565b9190505550505050565b600080600090505b601080549050811015611dce5760108181548110611d5457611d536146f7565b5b9060005260206000200160009054906101000a900473ffffffffffffffffffffffffffffffffffffffff1673ffffffffffffffffffffffffffffffffffffffff168373ffffffffffffffffffffffffffffffffffffffff1603611dbb576001915050611dd4565b8080611dc6906142d3565b915050611d33565b50600090505b919050565b60015481565b60608060086000848152602001908152602001600020600d01805480602002602001604051908101604052809291908181526020016000905b82821015611e685783829060005260206000209060030201604051806060016040529081600082015481526020016001820154815260200160028201548152505081526020019060010190611e18565b50505050905080915050919050565b3360008054906101000a900473ffffffffffffffffffffffffffffffffffffffff1673ffffffffffffffffffffffffffffffffffffffff168173ffffffffffffffffffffffffffffffffffffffff1614611ed057600080fd5b600a8281548110611ee457611ee36146f7565b5b9060005260206000200160006101000a81549073ffffffffffffffffffffffffffffffffffffffff02191690556006600083815260200190815260200160002060006101000a81549073ffffffffffffffffffffffffffffffffffffffff021916905560036000815480929190611f5a90614789565b91905055505050565b3360008054906101000a900473ffffffffffffffffffffffffffffffffffffffff1673ffffffffffffffffffffffffffffffffffffffff168173ffffffffffffffffffffffffffffffffffffffff1614611fbc57600080fd5b8b600760008e81526020019081526020016000206000015414611fde57600080fd5b6000600760008e815260200190815260200160002090508b8160010190816120069190614527565b508a8160020190816120189190614527565b508981600301908161202a9190614527565b508881600401908161203c9190614527565b508781600501908161204e9190614527565b50868160060190816120609190614527565b50858160070190816120729190614527565b50848160080190816120849190614527565b50838160090190816120969190614527565b508281600a0190816120a89190614527565b5050505050505050505050505050565b33600115156120c682612eed565b1515146120d257600080fd5b600115156120df84612f9b565b1515036121a55760006007600085815260200190815260200160002090508281600b0160006101000a81548173ffffffffffffffffffffffffffffffffffffffff021916908373ffffffffffffffffffffffffffffffffffffffff160217905550600e839080600181540180825580915050600190039060005260206000200160009091909190916101000a81548173ffffffffffffffffffffffffffffffffffffffff021916908373ffffffffffffffffffffffffffffffffffffffff160217905550505b505050565b60035481565b3360008054906101000a900473ffffffffffffffffffffffffffffffffffffffff1673ffffffffffffffffffffffffffffffffffffffff168173ffffffffffffffffffffffffffffffffffffffff161461220957600080fd5b6000600760008e815260200190815260200160002090508c81600001819055508b81600101908161223a9190614527565b508a81600201908161224c9190614527565b508981600301908161225e9190614527565b50888160040190816122709190614527565b50878160050190816122829190614527565b50868160060190816122949190614527565b50858160070190816122a69190614527565b50848160080190816122b89190614527565b50838160090190816122ca9190614527565b508281600a0190816122dc9190614527565b50600f8d908060018154018082558091505060019003906000526020600020016000909190919091505560026000815480929190612319906142d3565b919050555050505050505050505050505050565b60008060009054906101000a900473ffffffffffffffffffffffffffffffffffffffff1673ffffffffffffffffffffffffffffffffffffffff168273ffffffffffffffffffffffffffffffffffffffff160361238c57600190506123ed565b61239582612eed565b156123a357600290506123ed565b6123ac82612ffd565b156123ba57600390506123ed565b6123c382611a7d565b156123d157600490506123ed565b6123da82611d2b565b156123e857600590506123ed565b600690505b919050565b600960205280600052604060002060009150905080600001549080600101805461241b9061434a565b80601f01602080910402602001604051908101604052809291908181526020018280546124479061434a565b80156124945780601f1061246957610100808354040283529160200191612494565b820191906000526020600020905b81548152906001019060200180831161247757829003601f168201915b5050505050908060020180546124a99061434a565b80601f01602080910402602001604051908101604052809291908181526020018280546124d59061434a565b80156125225780601f106124f757610100808354040283529160200191612522565b820191906000526020600020905b81548152906001019060200180831161250557829003601f168201915b5050505050908060030180546125379061434a565b80601f01602080910402602001604051908101604052809291908181526020018280546125639061434a565b80156125b05780601f10612585576101008083540402835291602001916125b0565b820191906000526020600020905b81548152906001019060200180831161259357829003601f168201915b5050505050908060040180546125c59061434a565b80601f01602080910402602001604051908101604052809291908181526020018280546125f19061434a565b801561263e5780601f106126135761010080835404028352916020019161263e565b820191906000526020600020905b81548152906001019060200180831161262157829003601f168201915b5050505050905085565b336001151561265682612eed565b15151461266257600080fd5b6001151561266f846130ab565b1515036127355760006008600085815260200190815260200160002090508281600b0160006101000a81548173ffffffffffffffffffffffffffffffffffffffff021916908373ffffffffffffffffffffffffffffffffffffffff160217905550600c839080600181540180825580915050600190039060005260206000200160009091909190916101000a81548173ffffffffffffffffffffffffffffffffffffffff021916908373ffffffffffffffffffffffffffffffffffffffff160217905550505b505050565b3360008054906101000a900473ffffffffffffffffffffffffffffffffffffffff1673ffffffffffffffffffffffffffffffffffffffff168173ffffffffffffffffffffffffffffffffffffffff161461279357600080fd5b6000600860008d815260200190815260200160002090508b81600001819055508a8160010190816127c49190614527565b50898160020190816127d69190614527565b50888160030190816127e89190614527565b50878160040190816127fa9190614527565b508681600501908161280c9190614527565b508581600601908161281e9190614527565b50848160070190816128309190614527565b50838160080190816128429190614527565b50828160090190816128549190614527565b50600d8c908060018154018082558091505060019003906000526020600020016000909190919091505560016000815480929190612891906142d3565b9190505550505050505050505050505050565b60608060096000848152602001908152602001600020600501805480602002602001604051908101604052809291908181526020016000905b82821015612923578382906000526020600020906002020160405180604001604052908160008201548152602001600182015481525050815260200190600101906128dd565b50505050905080915050919050565b600d818154811061294257600080fd5b906000526020600020016000915090505481565b3360008054906101000a900473ffffffffffffffffffffffffffffffffffffffff1673ffffffffffffffffffffffffffffffffffffffff168173ffffffffffffffffffffffffffffffffffffffff16146129af57600080fd5b600860008381526020019081526020016000206000808201600090556001820160006129db9190613290565b6002820160006129eb9190613290565b6003820160006129fb9190613290565b600482016000612a0b9190613290565b600582016000612a1b9190613290565b600682016000612a2b9190613290565b600782016000612a3b9190613290565b600882016000612a4b9190613290565b600982016000612a5b9190613290565b600a820160009055600b820160006101000a81549073ffffffffffffffffffffffffffffffffffffffff0219169055600c82016000612a9a91906132d0565b600d82016000612aaa91906132f1565b505060006001600d80549050612ac09190614726565b9050600d8181548110612ad657612ad56146f7565b5b90600052602060002001548314612b2957600d8181548110612afb57612afa6146f7565b5b9060005260206000200154600d8481548110612b1a57612b196146f7565b5b90600052602060002001819055505b600d805480612b3b57612b3a61475a565b5b6001900381819060005260206000200160009055905560016000815480929190612b6490614789565b9190505550505050565b600a8181548110612b7e57600080fd5b906000526020600020016000915054906101000a900473ffffffffffffffffffffffffffffffffffffffff1681565b60608060086000848152602001908152602001600020600c01805480602002602001604051908101604052809291908181526020016000905b82821015612c92578382906000526020600020018054612c059061434a565b80601f0160208091040260200160405190810160405280929190818152602001828054612c319061434a565b8015612c7e5780601f10612c5357610100808354040283529160200191612c7e565b820191906000526020600020905b815481529060010190602001808311612c6157829003601f168201915b505050505081526020019060010190612be6565b50505050905080915050919050565b3360011515612caf82612eed565b151514612cbb57600080fd5b60086000848152602001908152602001600020600c0182908060018154018082558091505060019003906000526020600020016000909190919091509081612d039190614527565b50505050565b600f8181548110612d1957600080fd5b906000526020600020016000915090505481565b3360011515612d3b82612eed565b151514612d4757600080fd5b6010829080600181540180825580915050600190039060005260206000200160009091909190916101000a81548173ffffffffffffffffffffffffffffffffffffffff021916908373ffffffffffffffffffffffffffffffffffffffff16021790555060056000815480929190612dbd906142d3565b91905055505050565b60066020528060005260406000206000915054906101000a900473ffffffffffffffffffffffffffffffffffffffff1681565b60045481565b600c8181548110612e0f57600080fd5b906000526020600020016000915054906101000a900473ffffffffffffffffffffffffffffffffffffffff1681565b3360011515612e4c82612eed565b151514612e5857600080fd5b6000600960008781526020019081526020016000209050612e77613315565b84816000018181525050838160200181815250508160050181908060018154018082558091505060019003906000526020600020906002020160009091909190915060008201518160000155602082015181600101555050612edb87878787610960565b612ee48561310d565b50505050505050565b600080600090505b600a80549050811015612f9057600a8181548110612f1657612f156146f7565b5b9060005260206000200160009054906101000a900473ffffffffffffffffffffffffffffffffffffffff1673ffffffffffffffffffffffffffffffffffffffff168373ffffffffffffffffffffffffffffffffffffffff1603612f7d576001915050612f96565b8080612f88906142d3565b915050612ef5565b50600090505b919050565b600080600090505b600f80549050811015612ff257600f8181548110612fc457612fc36146f7565b5b90600052602060002001548303612fdf576001915050612ff8565b8080612fea906142d3565b915050612fa3565b50600090505b919050565b600080600090505b600e805490508110156130a057600e8181548110613026576130256146f7565b5b9060005260206000200160009054906101000a900473ffffffffffffffffffffffffffffffffffffffff1673ffffffffffffffffffffffffffffffffffffffff168373ffffffffffffffffffffffffffffffffffffffff160361308d5760019150506130a6565b8080613098906142d3565b915050613005565b50600090505b919050565b600080600090505b600d8054905081101561310257600d81815481106130d4576130d36146f7565b5b906000526020600020015483036130ef576001915050613108565b80806130fa906142d3565b9150506130b3565b50600090505b919050565b600060086000838152602001908152602001600020905060008060005b83600d01805490508110156131e85783600d01818154811061314f5761314e6146f7565b5b9060005260206000209060030201600101548361316c91906147b2565b925083600d018181548110613184576131836146f7565b5b90600052602060002090600302016001015484600d0182815481106131ac576131ab6146f7565b5b9060005260206000209060030201600201546131c891906147e6565b826131d391906147b2565b915080806131e0906142d3565b91505061312a565b5081816131f59190614857565b83600a018190555050505050565b60405180606001604052806000815260200160008152602001600081525090565b82805482825590600052602060002090600202810192821561327f5760005260206000209160020282015b8281111561327e578282600082015481600001556001820154816001015550509160020191906002019061324f565b5b50905061328c919061332f565b5090565b50805461329c9061434a565b6000825580601f106132ae57506132cd565b601f0160209004906000526020600020908101906132cc9190613356565b5b50565b50805460008255906000526020600020908101906132ee9190613373565b50565b50805460008255600302906000526020600020908101906133129190613397565b50565b604051806040016040528060008152602001600081525090565b5b8082111561335257600080820160009055600182016000905550600201613330565b5090565b5b8082111561336f576000816000905550600101613357565b5090565b5b80821115613393576000818161338a9190613290565b50600101613374565b5090565b5b808211156133c2576000808201600090556001820160009055600282016000905550600301613398565b5090565b6000604051905090565b600080fd5b600080fd5b6000819050919050565b6133ed816133da565b81146133f857600080fd5b50565b60008135905061340a816133e4565b92915050565b600060208284031215613426576134256133d0565b5b6000613434848285016133fb565b91505092915050565b600073ffffffffffffffffffffffffffffffffffffffff82169050919050565b60006134688261343d565b9050919050565b6134788161345d565b82525050565b6000602082019050613493600083018461346f565b92915050565b6134a28161345d565b81146134ad57600080fd5b50565b6000813590506134bf81613499565b92915050565b6000602082840312156134db576134da6133d0565b5b60006134e9848285016134b0565b91505092915050565b6134fb816133da565b82525050565b600060208201905061351660008301846134f2565b92915050565b60008060008060808587031215613536576135356133d0565b5b6000613544878288016133fb565b9450506020613555878288016133fb565b9350506040613566878288016133fb565b9250506060613577878288016133fb565b91505092959194509250565b600081519050919050565b600082825260208201905092915050565b60005b838110156135bd5780820151818401526020810190506135a2565b60008484015250505050565b6000601f19601f8301169050919050565b60006135e582613583565b6135ef818561358e565b93506135ff81856020860161359f565b613608816135c9565b840191505092915050565b600060a08201905061362860008301886134f2565b818103602083015261363a81876135da565b9050818103604083015261364e81866135da565b9050818103606083015261366281856135da565b9050818103608083015261367681846135da565b90509695505050505050565b600080fd5b600080fd5b7f4e487b7100000000000000000000000000000000000000000000000000000000600052604160045260246000fd5b6136c4826135c9565b810181811067ffffffffffffffff821117156136e3576136e261368c565b5b80604052505050565b60006136f66133c6565b905061370282826136bb565b919050565b600067ffffffffffffffff8211156137225761372161368c565b5b61372b826135c9565b9050602081019050919050565b82818337600083830152505050565b600061375a61375584613707565b6136ec565b90508281526020810184848401111561377657613775613687565b5b613781848285613738565b509392505050565b600082601f83011261379e5761379d613682565b5b81356137ae848260208601613747565b91505092915050565b6000806000806000806000806000806101408b8d0312156137db576137da6133d0565b5b60006137e98d828e016133fb565b9a505060208b013567ffffffffffffffff81111561380a576138096133d5565b5b6138168d828e01613789565b99505060408b013567ffffffffffffffff811115613837576138366133d5565b5b6138438d828e01613789565b98505060608b013567ffffffffffffffff811115613864576138636133d5565b5b6138708d828e01613789565b97505060808b013567ffffffffffffffff811115613891576138906133d5565b5b61389d8d828e01613789565b96505060a08b013567ffffffffffffffff8111156138be576138bd6133d5565b5b6138ca8d828e01613789565b95505060c08b013567ffffffffffffffff8111156138eb576138ea6133d5565b5b6138f78d828e01613789565b94505060e08b013567ffffffffffffffff811115613918576139176133d5565b5b6139248d828e01613789565b9350506101008b013567ffffffffffffffff811115613946576139456133d5565b5b6139528d828e01613789565b9250506101208b013567ffffffffffffffff811115613974576139736133d5565b5b6139808d828e01613789565b9150509295989b9194979a5092959850565b6000610180820190506139a8600083018f6134f2565b81810360208301526139ba818e6135da565b905081810360408301526139ce818d6135da565b905081810360608301526139e2818c6135da565b905081810360808301526139f6818b6135da565b905081810360a0830152613a0a818a6135da565b905081810360c0830152613a1e81896135da565b905081810360e0830152613a3281886135da565b9050818103610100830152613a4781876135da565b9050818103610120830152613a5c81866135da565b9050613a6c6101408301856134f2565b613a7a61016083018461346f565b9d9c50505050505050505050505050565b600080600080600060a08688031215613aa757613aa66133d0565b5b6000613ab5888289016133fb565b955050602086013567ffffffffffffffff811115613ad657613ad56133d5565b5b613ae288828901613789565b945050604086013567ffffffffffffffff811115613b0357613b026133d5565b5b613b0f88828901613789565b935050606086013567ffffffffffffffff811115613b3057613b2f6133d5565b5b613b3c88828901613789565b925050608086013567ffffffffffffffff811115613b5d57613b5c6133d5565b5b613b6988828901613789565b9150509295509295909350565b600061018082019050613b8c600083018f6134f2565b8181036020830152613b9e818e6135da565b90508181036040830152613bb2818d6135da565b90508181036060830152613bc6818c6135da565b90508181036080830152613bda818b6135da565b905081810360a0830152613bee818a6135da565b905081810360c0830152613c0281896135da565b905081810360e0830152613c1681886135da565b9050818103610100830152613c2b81876135da565b9050818103610120830152613c4081866135da565b9050818103610140830152613c5581856135da565b9050613c6561016083018461346f565b9d9c50505050505050505050505050565b60008115159050919050565b613c8b81613c76565b82525050565b6000602082019050613ca66000830184613c82565b92915050565b600081519050919050565b600082825260208201905092915050565b6000819050602082019050919050565b613ce1816133da565b82525050565b606082016000820151613cfd6000850182613cd8565b506020820151613d106020850182613cd8565b506040820151613d236040850182613cd8565b50505050565b6000613d358383613ce7565b60608301905092915050565b6000602082019050919050565b6000613d5982613cac565b613d638185613cb7565b9350613d6e83613cc8565b8060005b83811015613d9f578151613d868882613d29565b9750613d9183613d41565b925050600181019050613d72565b5085935050505092915050565b60006020820190508181036000830152613dc68184613d4e565b905092915050565b60008060008060008060008060008060006101608c8e031215613df457613df36133d0565b5b6000613e028e828f016133fb565b9b505060208c013567ffffffffffffffff811115613e2357613e226133d5565b5b613e2f8e828f01613789565b9a505060408c013567ffffffffffffffff811115613e5057613e4f6133d5565b5b613e5c8e828f01613789565b99505060608c013567ffffffffffffffff811115613e7d57613e7c6133d5565b5b613e898e828f01613789565b98505060808c013567ffffffffffffffff811115613eaa57613ea96133d5565b5b613eb68e828f01613789565b97505060a08c013567ffffffffffffffff811115613ed757613ed66133d5565b5b613ee38e828f01613789565b96505060c08c013567ffffffffffffffff811115613f0457613f036133d5565b5b613f108e828f01613789565b95505060e08c013567ffffffffffffffff811115613f3157613f306133d5565b5b613f3d8e828f01613789565b9450506101008c013567ffffffffffffffff811115613f5f57613f5e6133d5565b5b613f6b8e828f01613789565b9350506101208c013567ffffffffffffffff811115613f8d57613f8c6133d5565b5b613f998e828f01613789565b9250506101408c013567ffffffffffffffff811115613fbb57613fba6133d5565b5b613fc78e828f01613789565b9150509295989b509295989b9093969950565b60008060408385031215613ff157613ff06133d0565b5b6000613fff858286016133fb565b9250506020614010858286016134b0565b9150509250929050565b600081519050919050565b600082825260208201905092915050565b6000819050602082019050919050565b60408201600082015161405c6000850182613cd8565b50602082015161406f6020850182613cd8565b50505050565b60006140818383614046565b60408301905092915050565b6000602082019050919050565b60006140a58261401a565b6140af8185614025565b93506140ba83614036565b8060005b838110156140eb5781516140d28882614075565b97506140dd8361408d565b9250506001810190506140be565b5085935050505092915050565b60006020820190508181036000830152614112818461409a565b905092915050565b600081519050919050565b600082825260208201905092915050565b6000819050602082019050919050565b600082825260208201905092915050565b600061416282613583565b61416c8185614146565b935061417c81856020860161359f565b614185816135c9565b840191505092915050565b600061419c8383614157565b905092915050565b6000602082019050919050565b60006141bc8261411a565b6141c68185614125565b9350836020820285016141d885614136565b8060005b8581101561421457848403895281516141f58582614190565b9450614200836141a4565b925060208a019950506001810190506141dc565b50829750879550505050505092915050565b6000602082019050818103600083015261424081846141b1565b905092915050565b6000806040838503121561425f5761425e6133d0565b5b600061426d858286016133fb565b925050602083013567ffffffffffffffff81111561428e5761428d6133d5565b5b61429a85828601613789565b9150509250929050565b7f4e487b7100000000000000000000000000000000000000000000000000000000600052601160045260246000fd5b60006142de826133da565b91507fffffffffffffffffffffffffffffffffffffffffffffffffffffffffffffffff82036143105761430f6142a4565b5b600182019050919050565b7f4e487b7100000000000000000000000000000000000000000000000000000000600052602260045260246000fd5b6000600282049050600182168061436257607f821691505b6020821081036143755761437461431b565b5b50919050565b60008190508160005260206000209050919050565b60006020601f8301049050919050565b600082821b905092915050565b6000600883026143dd7fffffffffffffffffffffffffffffffffffffffffffffffffffffffffffffffff826143a0565b6143e786836143a0565b95508019841693508086168417925050509392505050565b6000819050919050565b600061442461441f61441a846133da565b6143ff565b6133da565b9050919050565b6000819050919050565b61443e83614409565b61445261444a8261442b565b8484546143ad565b825550505050565b600090565b61446761445a565b614472818484614435565b505050565b5b818110156144965761448b60008261445f565b600181019050614478565b5050565b601f8211156144db576144ac8161437b565b6144b584614390565b810160208510156144c4578190505b6144d86144d085614390565b830182614477565b50505b505050565b600082821c905092915050565b60006144fe600019846008026144e0565b1980831691505092915050565b600061451783836144ed565b9150826002028217905092915050565b61453082613583565b67ffffffffffffffff8111156145495761454861368c565b5b614553825461434a565b61455e82828561449a565b600060209050601f831160018114614591576000841561457f578287015190505b614589858261450b565b8655506145f1565b601f19841661459f8661437b565b60005b828110156145c7578489015182556001820191506020850194506020810190506145a2565b868310156145e457848901516145e0601f8916826144ed565b8355505b6001600288020188555050505b505050505050565b6000815490506146088161434a565b9050919050565b81810361461d5750506146f5565b614626826145f9565b67ffffffffffffffff81111561463f5761463e61368c565b5b614649825461434a565b61465482828561449a565b6000601f8311600181146146835760008415614671578287015490505b61467b858261450b565b8655506146ee565b601f1984166146918761437b565b965061469c8661437b565b60005b828110156146c45784890154825560018201915060018501945060208101905061469f565b868310156146e157848901546146dd601f8916826144ed565b8355505b6001600288020188555050505b5050505050505b565b7f4e487b7100000000000000000000000000000000000000000000000000000000600052603260045260246000fd5b6000614731826133da565b915061473c836133da565b9250828203905081811115614754576147536142a4565b5b92915050565b7f4e487b7100000000000000000000000000000000000000000000000000000000600052603160045260246000fd5b6000614794826133da565b9150600082036147a7576147a66142a4565b5b600182039050919050565b60006147bd826133da565b91506147c8836133da565b92508282019050808211156147e0576147df6142a4565b5b92915050565b60006147f1826133da565b91506147fc836133da565b925082820261480a816133da565b91508282048414831517614821576148206142a4565b5b5092915050565b7f4e487b7100000000000000000000000000000000000000000000000000000000600052601260045260246000fd5b6000614862826133da565b915061486d836133da565b92508261487d5761487c614828565b5b82820490509291505056fea26469706673582212205ac11a89482901cf1f420f3f7b3bf891f12ae4e2a373feb6789319561febf81a64736f6c63430008110033",
  "immutableReferences": {},
  "source": "// SPDX-License-Identifier: MIT\npragma solidity >=0.4.22 <0.9.0;\ncontract spu {\n    address is_admin;\n    constructor() {\n        is_admin = msg.sender;\n    }\n\n    struct course_grade {\n        uint student_id;\n        uint mark;\n    }\n\n    struct student_courses {\n        uint couse_id;\n        uint weekly_hours;\n        uint mark;\n    }\n\n    struct course {\n        uint id;\n        string name;\n        string weekly_hour;\n        string level;\n        string college;\n        course_grade[] students_grades;\n    }\n\n    struct prof {\n        uint id;\n        string firstName;\n        string lastName;\n        string fatherName;\n        string motherName;\n        string gender;\n        string email;\n        string collegeName;\n        string dateOfBirth;\n        string mobileNumber;\n        string specialization;\n        address prof_address;\n    }\n\n    struct student {\n        uint id;\n        string firstName;\n        string lastName;\n        string fatherName;\n        string motherName;\n        string gender;\n        string email;\n        string collegeName;\n        string dateOfBirth;\n        string mobileNumber;\n        uint256 cumulative_averge;\n        address student_address;\n        string[] warnnings;\n        student_courses[] all_courses;\n    }\n\n    modifier onlyemp(address v) {\n        require(ChekIfEmp(v) == true);\n        _;\n    }\n\n    modifier onlyAdmin(address x) {\n        require(x == is_admin);\n        _;\n    }\n\n    uint public s_counter = 0;\n    uint public p_counter = 0;\n    uint public e_counter = 0;\n    uint public c_counter = 0;\n    uint public a_counter = 0;\n\n    mapping(uint => address) public get_emp;\n    mapping(uint => prof) public get_prof;\n    mapping(uint => student) public get_student;\n    mapping(uint => course) public get_course;\n\n    address[] public all_employees;\n    course[] public spu_courses;\n\n    address[] public all_students;\n    uint[] public all_students_id;\n\n    address[] public all_profs;\n    uint[] public all_profs_id;\n\n    address[] public authorized;\n\n    function checkRole(address a) public view returns (uint) {\n        if (a == is_admin) {\n            return 1;\n        } else if (ChekIfEmp(a)) {\n            return 2;\n        } else if (ChekIfprofaddress(a)) {\n            return 3;\n        } else if (ChekIfstudentaddress(a)) {\n            return 4;\n        } else if (Chek_If_auhrized(a)) {\n            return 5;\n        } else {\n            return 6;\n        }\n    }\n\n    function Chek_If_auhrized(address y) public view returns (bool b) {\n        for (uint i = 0; i < authorized.length; i++) {\n            if (y == authorized[i]) {\n                return true;\n            }\n        }\n        return false;\n    }\n    function ChekIfEmp(address y) public view returns (bool b) {\n        for (uint i = 0; i < all_employees.length; i++) {\n            if (y == all_employees[i]) {\n                return true;\n            }\n        }\n        return false;\n    }\n    function ChekIfstudent(uint _id) private view returns (bool b) {\n        for (uint i = 0; i < all_students_id.length; i++) {\n            if (_id == all_students_id[i]) {\n                return true;\n            }\n        }\n        return false;\n    }\n\n    function ChekIfstudentaddress(address x) public view returns (bool b) {\n        for (uint i = 0; i < all_students.length; i++) {\n            if (x == all_students[i]) {\n                return true;\n            }\n        }\n        return false;\n    }\n    function ChekIfauthorizedaddress(address x) private view returns (bool b) {\n        for (uint i = 0; i < authorized.length; i++) {\n            if (x == authorized[i]) {\n                return true;\n            }\n        }\n        return false;\n    }\n\n    function ChekIfprofaddress(address x) private view returns (bool b) {\n        for (uint i = 0; i < all_profs.length; i++) {\n            if (x == all_profs[i]) {\n                return true;\n            }\n        }\n        return false;\n    }\n\n    function ChekIfprof(uint _id) private view returns (bool b) {\n        for (uint i = 0; i < all_profs_id.length; i++) {\n            if (_id == all_profs_id[i]) {\n                return true;\n            }\n        }\n        return false;\n    }\n\n    function add_mark_To_Student(\n        uint course_id,\n        uint w_h,\n        uint s_id,\n        uint _mark\n    ) public {\n        student storage s = get_student[s_id];\n        student_courses memory f;\n        f.couse_id = course_id;\n        f.mark = _mark;\n        f.weekly_hours = w_h;\n\n        s.all_courses.push(f);\n    }\n\n    function set_cumulative_averge(uint student_id) private {\n        student storage s = get_student[student_id];\n        uint256 t_h = 0;\n        uint256 v = 0;\n        for (uint i = 0; i < s.all_courses.length; i++) {\n            t_h = t_h + s.all_courses[i].weekly_hours;\n            v = v + (s.all_courses[i].mark * s.all_courses[i].weekly_hours);\n        }\n\n        s.cumulative_averge = v / t_h;\n    }\n\n    function add_address_to_student(\n        uint _id,\n        address _address\n    ) public onlyemp(msg.sender) {\n        if (ChekIfstudent(_id) == true) {\n            student storage s = get_student[_id];\n            s.student_address = _address;\n            all_students.push(_address);\n        }\n    }\n\n    function add_address_to_prof(\n        uint _id,\n        address _address\n    ) public onlyemp(msg.sender) {\n        if (ChekIfprof(_id) == true) {\n            prof storage s = get_prof[_id];\n            s.prof_address = _address;\n            all_profs.push(_address);\n        }\n    }\n    function add_authorized_ad(address A) public onlyemp(msg.sender) {\n        authorized.push(A);\n        a_counter++;\n    }\n\n    function Add_corse(\n        uint id,\n        string memory name,\n        string memory weekly_hour,\n        string memory level,\n        string memory college\n    ) public onlyAdmin(msg.sender) {\n        course storage b = get_course[id];\n\n        b.id = id;\n        b.name = name;\n        b.weekly_hour = weekly_hour;\n        b.level = level;\n        b.college = college;\n        spu_courses.push(b);\n        c_counter++;\n    }\n\n    function add_course_marks(\n        uint course_id,\n        uint w_h,\n        uint student_id,\n        uint _mark\n    ) public onlyemp(msg.sender) {\n        course storage c = get_course[course_id];\n\n        course_grade memory g;\n        g.student_id = student_id;\n        g.mark = _mark;\n        c.students_grades.push(g);\n\n        add_mark_To_Student(course_id, w_h, student_id, _mark);\n        set_cumulative_averge(student_id);\n    }\n\n    function register_student(\n        uint _id,\n        string memory _firstName,\n        string memory _lastName,\n        string memory _fatherName,\n        string memory _motherName,\n        string memory _gender,\n        string memory _email,\n        string memory _collegeName,\n        string memory _dateOfBirth,\n        string memory _mobileNumber\n    ) public onlyAdmin(msg.sender) {\n        student storage s = get_student[_id];\n        s.id = _id;\n        s.firstName = _firstName;\n        s.lastName = _lastName;\n        s.fatherName = _fatherName;\n        s.motherName = _motherName;\n        s.gender = _gender;\n        s.email = _email;\n        s.collegeName = _collegeName;\n        s.dateOfBirth = _dateOfBirth;\n        s.mobileNumber = _mobileNumber;\n\n        all_students_id.push(_id);\n        s_counter++;\n    }\n\n    function register_prof(\n        uint _id,\n        string memory _firstName,\n        string memory _lastName,\n        string memory _fatherName,\n        string memory _motherName,\n        string memory _gender,\n        string memory _email,\n        string memory _collegeName,\n        string memory _dateOfBirth,\n        string memory _mobileNumber,\n        string memory _specialization\n    ) public onlyAdmin(msg.sender) {\n        prof storage s = get_prof[_id];\n\n        s.id = _id;\n        s.firstName = _firstName;\n        s.lastName = _lastName;\n        s.fatherName = _fatherName;\n        s.motherName = _motherName;\n        s.gender = _gender;\n        s.email = _email;\n        s.collegeName = _collegeName;\n        s.dateOfBirth = _dateOfBirth;\n        s.mobileNumber = _mobileNumber;\n        s.specialization = _specialization;\n\n        all_profs_id.push(_id);\n\n        p_counter++;\n    }\n\n    function register_emp(address _x) public onlyAdmin(msg.sender) {\n        get_emp[e_counter] = _x;\n        all_employees.push(_x);\n        e_counter++;\n    }\n\n    function add_warnning(\n        uint _id,\n        string memory _warnning\n    ) public onlyemp(msg.sender) {\n        get_student[_id].warnnings.push(_warnning);\n    }\n\n    function get_Course_marks(\n        uint _id\n    ) public view returns (course_grade[] memory l) {\n        course_grade[] memory q;\n        q = get_course[_id].students_grades;\n        return q;\n    }\n\n    function get_warnnings(uint _id) public view returns (string[] memory b) {\n        string[] memory e;\n        e = get_student[_id].warnnings;\n        return e;\n    }\n    function get_student_courses(\n        uint _id\n    ) public view returns (student_courses[] memory b) {\n        student_courses[] memory e;\n        e = get_student[_id].all_courses;\n        return e;\n    }\n\n    function Delet_emp(uint n) public onlyAdmin(msg.sender) {\n        delete all_employees[n];\n        delete get_emp[n];\n\n        e_counter--;\n    }\n\n    function deleteStudent(uint256 _id) public onlyAdmin(msg.sender) {\n        delete get_student[_id];\n\n        uint256 lastIndex = all_students_id.length - 1;\n        if (_id != all_students_id[lastIndex]) {\n            all_students_id[_id] = all_students_id[lastIndex];\n        }\n        all_students_id.pop();\n\n        s_counter--;\n    }\n\n    function deleteprof(uint256 _id) public onlyAdmin(msg.sender) {\n        delete get_prof[_id];\n\n        uint256 lastIndex = all_profs_id.length - 1;\n        if (_id != all_profs_id[lastIndex]) {\n            all_profs_id[_id] = all_profs_id[lastIndex];\n        }\n        all_profs_id.pop();\n\n        p_counter--;\n    }\n\n    function modifyStudent(\n        uint _id,\n        string memory _firstName,\n        string memory _lastName,\n        string memory _fatherName,\n        string memory _motherName,\n        string memory _gender,\n        string memory _email,\n        string memory _collegeName,\n        string memory _dateOfBirth,\n        string memory _mobileNumber\n    ) public onlyAdmin(msg.sender) {\n        require(get_student[_id].id == _id);\n\n        student storage s = get_student[_id];\n        s.firstName = _firstName;\n        s.lastName = _lastName;\n        s.fatherName = _fatherName;\n        s.motherName = _motherName;\n        s.gender = _gender;\n        s.email = _email;\n        s.collegeName = _collegeName;\n        s.dateOfBirth = _dateOfBirth;\n        s.mobileNumber = _mobileNumber;\n    }\n\n    function modifyprof(\n        uint _id,\n        string memory _firstName,\n        string memory _lastName,\n        string memory _fatherName,\n        string memory _motherName,\n        string memory _gender,\n        string memory _email,\n        string memory _collegeName,\n        string memory _dateOfBirth,\n        string memory _mobileNumber,\n        string memory _specialization\n    ) public onlyAdmin(msg.sender) {\n        require(get_prof[_id].id == _id);\n\n        prof storage s = get_prof[_id];\n        s.firstName = _firstName;\n        s.lastName = _lastName;\n        s.fatherName = _fatherName;\n        s.motherName = _motherName;\n        s.gender = _gender;\n        s.email = _email;\n        s.collegeName = _collegeName;\n        s.dateOfBirth = _dateOfBirth;\n        s.mobileNumber = _mobileNumber;\n        s.specialization = _specialization;\n    }\n}",
  "sourcePath": "/home/ola/Desktop/studentAcheiv/block/contracts/spu.sol",
  "compiler": {
    "name": "solc",
    "version": "0.8.17+commit.8df45f5f.Emscripten.clang"
  },
  "schemaVersion": "3.4.16",
  "updatedAt": "2024-05-28T09:18:27.519Z",
  "networkType": "ethereum",
  "devdoc": {
    "kind": "dev",
    "methods": {},
    "version": 1
  },
  "userdoc": {
    "kind": "user",
    "methods": {},
    "version": 1
  }
}